{
  "address": "0x3CbFaF05AbB2A9d74c60B7dF1BE20eD86503D591",
  "abi": [
    {
      "anonymous": false,
      "inputs": [
        {
          "indexed": false,
          "internalType": "address",
          "name": "previousAdmin",
          "type": "address"
        },
        {
          "indexed": false,
          "internalType": "address",
          "name": "newAdmin",
          "type": "address"
        }
      ],
      "name": "AdminChanged",
      "type": "event"
    },
    {
      "anonymous": false,
      "inputs": [
        {
          "indexed": true,
          "internalType": "address",
          "name": "beacon",
          "type": "address"
        }
      ],
      "name": "BeaconUpgraded",
      "type": "event"
    },
    {
      "anonymous": false,
      "inputs": [
        {
          "indexed": true,
          "internalType": "address",
          "name": "previousOwner",
          "type": "address"
        },
        {
          "indexed": true,
          "internalType": "address",
          "name": "newOwner",
          "type": "address"
        }
      ],
      "name": "OwnershipTransferred",
      "type": "event"
    },
    {
      "anonymous": false,
      "inputs": [
        {
          "indexed": true,
          "internalType": "address",
          "name": "_by",
          "type": "address"
        },
        {
          "indexed": true,
          "internalType": "address",
          "name": "_to",
          "type": "address"
        },
        {
          "indexed": true,
          "internalType": "bytes32",
          "name": "_vestingScheduleId",
          "type": "bytes32"
        },
        {
          "indexed": false,
          "internalType": "uint256",
          "name": "_amount",
          "type": "uint256"
        }
      ],
      "name": "Released",
      "type": "event"
    },
    {
      "anonymous": false,
      "inputs": [
        {
          "indexed": true,
          "internalType": "address",
          "name": "_by",
          "type": "address"
        },
        {
          "indexed": true,
          "internalType": "address",
          "name": "_beneficiary",
          "type": "address"
        },
        {
          "indexed": true,
          "internalType": "bytes32",
          "name": "_vestingScheduleId",
          "type": "bytes32"
        }
      ],
      "name": "Revoked",
      "type": "event"
    },
    {
      "anonymous": false,
      "inputs": [
        {
          "indexed": true,
          "internalType": "address",
          "name": "_by",
          "type": "address"
        },
        {
          "indexed": true,
          "internalType": "address",
          "name": "_oldVal",
          "type": "address"
        },
        {
          "indexed": true,
          "internalType": "address",
          "name": "_newVal",
          "type": "address"
        }
      ],
      "name": "TreasuryUpdated",
      "type": "event"
    },
    {
      "anonymous": false,
      "inputs": [
        {
          "indexed": true,
          "internalType": "address",
          "name": "implementation",
          "type": "address"
        }
      ],
      "name": "Upgraded",
      "type": "event"
    },
    {
      "anonymous": false,
      "inputs": [
        {
          "indexed": true,
          "internalType": "address",
          "name": "_by",
          "type": "address"
        },
        {
          "indexed": true,
          "internalType": "address",
          "name": "_beneficiary",
          "type": "address"
        },
        {
          "indexed": true,
          "internalType": "bytes32",
          "name": "_vestingScheduleId",
          "type": "bytes32"
        },
        {
          "components": [
            {
              "internalType": "bool",
              "name": "initialized",
              "type": "bool"
            },
            {
              "internalType": "address",
              "name": "beneficiary",
              "type": "address"
            },
            {
              "internalType": "uint256",
              "name": "cliff",
              "type": "uint256"
            },
            {
              "internalType": "uint256",
              "name": "start",
              "type": "uint256"
            },
            {
              "internalType": "uint256",
              "name": "duration",
              "type": "uint256"
            },
            {
              "internalType": "uint256",
              "name": "slicePeriodSeconds",
              "type": "uint256"
            },
            {
              "internalType": "bool",
              "name": "revocable",
              "type": "bool"
            },
            {
              "internalType": "uint256",
              "name": "amountTotal",
              "type": "uint256"
            },
            {
              "internalType": "uint256",
              "name": "immediatelyReleasableAmount",
              "type": "uint256"
            },
            {
              "internalType": "uint256",
              "name": "released",
              "type": "uint256"
            },
            {
              "internalType": "bool",
              "name": "revoked",
              "type": "bool"
            }
          ],
          "indexed": false,
          "internalType": "struct TokenVesting.VestingSchedule",
          "name": "_schedule",
          "type": "tuple"
        }
      ],
      "name": "VestingScheduleCreated",
      "type": "event"
    },
    {
      "inputs": [
        {
          "internalType": "address",
          "name": "holder",
          "type": "address"
        }
      ],
      "name": "computeNextVestingScheduleIdForHolder",
      "outputs": [
        {
          "internalType": "bytes32",
          "name": "",
          "type": "bytes32"
        }
      ],
      "stateMutability": "view",
      "type": "function"
    },
    {
      "inputs": [
        {
          "internalType": "bytes32",
          "name": "vestingScheduleId",
          "type": "bytes32"
        }
      ],
      "name": "computeReleasableAmount",
      "outputs": [
        {
          "internalType": "uint256",
          "name": "",
          "type": "uint256"
        }
      ],
      "stateMutability": "view",
      "type": "function"
    },
    {
      "inputs": [
        {
          "internalType": "address",
          "name": "holder",
          "type": "address"
        },
        {
          "internalType": "uint256",
          "name": "index",
          "type": "uint256"
        }
      ],
      "name": "computeVestingScheduleIdForAddressAndIndex",
      "outputs": [
        {
          "internalType": "bytes32",
          "name": "",
          "type": "bytes32"
        }
      ],
      "stateMutability": "pure",
      "type": "function"
    },
    {
      "inputs": [
        {
          "internalType": "address",
          "name": "_beneficiary",
          "type": "address"
        },
        {
          "internalType": "uint256",
          "name": "_start",
          "type": "uint256"
        },
        {
          "internalType": "uint256",
          "name": "_cliff",
          "type": "uint256"
        },
        {
          "internalType": "uint256",
          "name": "_duration",
          "type": "uint256"
        },
        {
          "internalType": "uint256",
          "name": "_slicePeriodSeconds",
          "type": "uint256"
        },
        {
          "internalType": "bool",
          "name": "_revocable",
          "type": "bool"
        },
        {
          "internalType": "uint256",
          "name": "_amount",
          "type": "uint256"
        },
        {
          "internalType": "uint256",
          "name": "_immediatelyReleasableAmount",
          "type": "uint256"
        }
      ],
      "name": "createVestingSchedule",
      "outputs": [],
      "stateMutability": "nonpayable",
      "type": "function"
    },
    {
      "inputs": [
        {
          "internalType": "address",
          "name": "holder",
          "type": "address"
        }
      ],
      "name": "getLastVestingScheduleForHolder",
      "outputs": [
        {
          "components": [
            {
              "internalType": "bool",
              "name": "initialized",
              "type": "bool"
            },
            {
              "internalType": "address",
              "name": "beneficiary",
              "type": "address"
            },
            {
              "internalType": "uint256",
              "name": "cliff",
              "type": "uint256"
            },
            {
              "internalType": "uint256",
              "name": "start",
              "type": "uint256"
            },
            {
              "internalType": "uint256",
              "name": "duration",
              "type": "uint256"
            },
            {
              "internalType": "uint256",
              "name": "slicePeriodSeconds",
              "type": "uint256"
            },
            {
              "internalType": "bool",
              "name": "revocable",
              "type": "bool"
            },
            {
              "internalType": "uint256",
              "name": "amountTotal",
              "type": "uint256"
            },
            {
              "internalType": "uint256",
              "name": "immediatelyReleasableAmount",
              "type": "uint256"
            },
            {
              "internalType": "uint256",
              "name": "released",
              "type": "uint256"
            },
            {
              "internalType": "bool",
              "name": "revoked",
              "type": "bool"
            }
          ],
          "internalType": "struct TokenVesting.VestingSchedule",
          "name": "",
          "type": "tuple"
        }
      ],
      "stateMutability": "view",
      "type": "function"
    },
    {
      "inputs": [],
      "name": "getToken",
      "outputs": [
        {
          "internalType": "address",
          "name": "",
          "type": "address"
        }
      ],
      "stateMutability": "view",
      "type": "function"
    },
    {
      "inputs": [],
      "name": "getTreasury",
      "outputs": [
        {
          "internalType": "address",
          "name": "",
          "type": "address"
        }
      ],
      "stateMutability": "view",
      "type": "function"
    },
    {
      "inputs": [
        {
          "internalType": "uint256",
          "name": "index",
          "type": "uint256"
        }
      ],
      "name": "getVestingIdAtIndex",
      "outputs": [
        {
          "internalType": "bytes32",
          "name": "",
          "type": "bytes32"
        }
      ],
      "stateMutability": "view",
      "type": "function"
    },
    {
      "inputs": [
        {
          "internalType": "bytes32",
          "name": "vestingScheduleId",
          "type": "bytes32"
        }
      ],
      "name": "getVestingSchedule",
      "outputs": [
        {
          "components": [
            {
              "internalType": "bool",
              "name": "initialized",
              "type": "bool"
            },
            {
              "internalType": "address",
              "name": "beneficiary",
              "type": "address"
            },
            {
              "internalType": "uint256",
              "name": "cliff",
              "type": "uint256"
            },
            {
              "internalType": "uint256",
              "name": "start",
              "type": "uint256"
            },
            {
              "internalType": "uint256",
              "name": "duration",
              "type": "uint256"
            },
            {
              "internalType": "uint256",
              "name": "slicePeriodSeconds",
              "type": "uint256"
            },
            {
              "internalType": "bool",
              "name": "revocable",
              "type": "bool"
            },
            {
              "internalType": "uint256",
              "name": "amountTotal",
              "type": "uint256"
            },
            {
              "internalType": "uint256",
              "name": "immediatelyReleasableAmount",
              "type": "uint256"
            },
            {
              "internalType": "uint256",
              "name": "released",
              "type": "uint256"
            },
            {
              "internalType": "bool",
              "name": "revoked",
              "type": "bool"
            }
          ],
          "internalType": "struct TokenVesting.VestingSchedule",
          "name": "",
          "type": "tuple"
        }
      ],
      "stateMutability": "view",
      "type": "function"
    },
    {
      "inputs": [
        {
          "internalType": "address",
          "name": "holder",
          "type": "address"
        },
        {
          "internalType": "uint256",
          "name": "index",
          "type": "uint256"
        }
      ],
      "name": "getVestingScheduleByAddressAndIndex",
      "outputs": [
        {
          "components": [
            {
              "internalType": "bool",
              "name": "initialized",
              "type": "bool"
            },
            {
              "internalType": "address",
              "name": "beneficiary",
              "type": "address"
            },
            {
              "internalType": "uint256",
              "name": "cliff",
              "type": "uint256"
            },
            {
              "internalType": "uint256",
              "name": "start",
              "type": "uint256"
            },
            {
              "internalType": "uint256",
              "name": "duration",
              "type": "uint256"
            },
            {
              "internalType": "uint256",
              "name": "slicePeriodSeconds",
              "type": "uint256"
            },
            {
              "internalType": "bool",
              "name": "revocable",
              "type": "bool"
            },
            {
              "internalType": "uint256",
              "name": "amountTotal",
              "type": "uint256"
            },
            {
              "internalType": "uint256",
              "name": "immediatelyReleasableAmount",
              "type": "uint256"
            },
            {
              "internalType": "uint256",
              "name": "released",
              "type": "uint256"
            },
            {
              "internalType": "bool",
              "name": "revoked",
              "type": "bool"
            }
          ],
          "internalType": "struct TokenVesting.VestingSchedule",
          "name": "",
          "type": "tuple"
        }
      ],
      "stateMutability": "view",
      "type": "function"
    },
    {
      "inputs": [],
      "name": "getVestingSchedulesCount",
      "outputs": [
        {
          "internalType": "uint256",
          "name": "",
          "type": "uint256"
        }
      ],
      "stateMutability": "view",
      "type": "function"
    },
    {
      "inputs": [
        {
          "internalType": "address",
          "name": "_beneficiary",
          "type": "address"
        }
      ],
      "name": "getVestingSchedulesCountByBeneficiary",
      "outputs": [
        {
          "internalType": "uint256",
          "name": "",
          "type": "uint256"
        }
      ],
      "stateMutability": "view",
      "type": "function"
    },
    {
      "inputs": [],
      "name": "getVestingSchedulesTotalAmount",
      "outputs": [
        {
          "internalType": "uint256",
          "name": "",
          "type": "uint256"
        }
      ],
      "stateMutability": "view",
      "type": "function"
    },
    {
      "inputs": [],
      "name": "owner",
      "outputs": [
        {
          "internalType": "address",
          "name": "",
          "type": "address"
        }
      ],
      "stateMutability": "view",
      "type": "function"
    },
    {
      "inputs": [
        {
          "internalType": "address",
          "name": "token_",
          "type": "address"
        },
        {
          "internalType": "address",
          "name": "treasury_",
          "type": "address"
        }
      ],
      "name": "postConstruct",
      "outputs": [],
      "stateMutability": "nonpayable",
      "type": "function"
    },
    {
      "inputs": [
        {
          "internalType": "bytes32",
          "name": "vestingScheduleId",
          "type": "bytes32"
        },
        {
          "internalType": "uint256",
          "name": "amount",
          "type": "uint256"
        }
      ],
      "name": "release",
      "outputs": [],
      "stateMutability": "nonpayable",
      "type": "function"
    },
    {
      "inputs": [],
      "name": "renounceOwnership",
      "outputs": [],
      "stateMutability": "nonpayable",
      "type": "function"
    },
    {
      "inputs": [
        {
          "internalType": "bytes32",
          "name": "vestingScheduleId",
          "type": "bytes32"
        }
      ],
      "name": "revoke",
      "outputs": [],
      "stateMutability": "nonpayable",
      "type": "function"
    },
    {
      "inputs": [
        {
          "internalType": "address",
          "name": "treasury_",
          "type": "address"
        }
      ],
      "name": "setTreasury",
      "outputs": [],
      "stateMutability": "nonpayable",
      "type": "function"
    },
    {
      "inputs": [
        {
          "internalType": "address",
          "name": "newOwner",
          "type": "address"
        }
      ],
      "name": "transferOwnership",
      "outputs": [],
      "stateMutability": "nonpayable",
      "type": "function"
    },
    {
      "inputs": [
        {
          "internalType": "address",
          "name": "newImplementation",
          "type": "address"
        }
      ],
      "name": "upgradeTo",
      "outputs": [],
      "stateMutability": "nonpayable",
      "type": "function"
    },
    {
      "inputs": [
        {
          "internalType": "address",
          "name": "newImplementation",
          "type": "address"
        },
        {
          "internalType": "bytes",
          "name": "data",
          "type": "bytes"
        }
      ],
      "name": "upgradeToAndCall",
      "outputs": [],
      "stateMutability": "payable",
      "type": "function"
    }
  ],
  "transactionHash": "0x379108981674d0671d5474987999e656e795873fe6d480a94d2024bc3ae77399",
  "args": [],
  "numDeployments": 1,
  "solcInputHash": "81ef301fafbca75d724f22e0f0accccd",
  "bytecode": "0x60a06040523060805234801561001457600080fd5b506080516123ad6100456000396000818161041a01528181610463015281816104ec015261052c01526123ad6000f3fe6080604052600436106101355760003560e01c806387a8f0a7116100ab578063ea1bb3d51161006f578063ea1bb3d51461034f578063f0f442601461036f578063f2fde38b1461038f578063f51321d7146103af578063f7c469f0146103cf578063f9079b37146103ef57600080fd5b806387a8f0a7146102b15780638af104da146102d15780638da5cb5b146102f15780639ef346b41461030f578063b75c7dc61461032f57600080fd5b80634f1ef286116100fd5780634f1ef286146101e55780635a7bb69a146101f857806363bada4f1461022f57806366afd8ef1461024f578063715018a61461026f5780637e913dc61461028457600080fd5b8063130836171461013a57806321df0da71461015e5780633659cfe6146101905780633b19e84a146101b257806348deb471146101d0575b600080fd5b34801561014657600080fd5b5060fd545b6040519081526020015b60405180910390f35b34801561016a57600080fd5b5060fb546001600160a01b03165b6040516001600160a01b039091168152602001610155565b34801561019c57600080fd5b506101b06101ab366004611e4d565b61040f565b005b3480156101be57600080fd5b5060fc546001600160a01b0316610178565b3480156101dc57600080fd5b5060ff5461014b565b6101b06101f3366004611e7e565b6104e1565b34801561020457600080fd5b5061014b610213366004611e4d565b6001600160a01b03166000908152610100602052604090205490565b34801561023b57600080fd5b506101b061024a366004611f40565b61059b565b34801561025b57600080fd5b506101b061026a366004611f73565b6106a9565b34801561027b57600080fd5b506101b06109b9565b34801561029057600080fd5b506102a461029f366004611e4d565b6109ef565b6040516101559190611f95565b3480156102bd57600080fd5b506101b06102cc366004612039565b610ad3565b3480156102dd57600080fd5b5061014b6102ec3660046120a8565b610faf565b3480156102fd57600080fd5b506097546001600160a01b0316610178565b34801561031b57600080fd5b506102a461032a3660046120d2565b610ff6565b34801561033b57600080fd5b506101b061034a3660046120d2565b6110a5565b34801561035b57600080fd5b5061014b61036a3660046120d2565b6112ba565b34801561037b57600080fd5b506101b061038a366004611e4d565b6113b3565b34801561039b57600080fd5b506101b06103aa366004611e4d565b61143b565b3480156103bb57600080fd5b506102a46103ca3660046120a8565b6114d3565b3480156103db57600080fd5b5061014b6103ea366004611e4d565b6114ef565b3480156103fb57600080fd5b5061014b61040a3660046120d2565b61151a565b306001600160a01b037f00000000000000000000000000000000000000000000000000000000000000001614156104615760405162461bcd60e51b8152600401610458906120eb565b60405180910390fd5b7f00000000000000000000000000000000000000000000000000000000000000006001600160a01b03166104936115a2565b6001600160a01b0316146104b95760405162461bcd60e51b815260040161045890612137565b6104c2816115d0565b604080516000808252602082019092526104de918391906115fa565b50565b306001600160a01b037f000000000000000000000000000000000000000000000000000000000000000016141561052a5760405162461bcd60e51b8152600401610458906120eb565b7f00000000000000000000000000000000000000000000000000000000000000006001600160a01b031661055c6115a2565b6001600160a01b0316146105825760405162461bcd60e51b815260040161045890612137565b61058b826115d0565b610597828260016115fa565b5050565b600054610100900460ff166105b65760005460ff16156105ba565b303b155b61061d5760405162461bcd60e51b815260206004820152602e60248201527f496e697469616c697a61626c653a20636f6e747261637420697320616c72656160448201526d191e481a5b9a5d1a585b1a5e995960921b6064820152608401610458565b600054610100900460ff1615801561063f576000805461ffff19166101011790555b6001600160a01b03831661065257600080fd5b60fb80546001600160a01b038086166001600160a01b03199283161790925560fc80549285169290911691909117905561068a611745565b61069261177c565b80156106a4576000805461ff00191690555b505050565b600260c95414156106fc5760405162461bcd60e51b815260206004820152601f60248201527f5265656e7472616e637947756172643a207265656e7472616e742063616c6c006044820152606401610458565b600260c955600082815260fe6020526040902054829060ff16151560011461072357600080fd5b600081815260fe602052604090206009015460ff161561074257600080fd5b600083815260fe602052604090208054609754336001600160a01b0361010090930483168114929091161481806107765750805b6107f35760405162461bcd60e51b815260206004820152604260248201527f546f6b656e56657374696e673a206f6e6c792062656e6566696369617279206160448201527f6e64206f776e65722063616e2072656c656173652076657374656420746f6b656064820152616e7360f01b608482015260a401610458565b6040805161016081018252845460ff808216151583526001600160a01b03610100928390041660208401526001870154938301939093526002860154606083015260038601546080830152600486015460a083015260058601548316151560c0830152600686015460e0830152600786015490820152600885015461012082015260098501549091161515610140820152600090610890906117ab565b9050858110156109085760405162461bcd60e51b815260206004820152603d60248201527f546f6b656e56657374696e673a2063616e6e6f742072656c6561736520746f6b60448201527f656e732c206e6f7420656e6f7567682076657374656420746f6b656e730000006064820152608401610458565b600884015461091790876118b4565b6008850155835460ff546101009091046001600160a01b03169061093b90886118c0565b60ff5560fc5460fb5461095c916001600160a01b039182169116838a6118cc565b87816001600160a01b0316336001600160a01b03167f2afa253d0464d87b039f71a6964ed5c028a3a3c68048d909fbee4b1610756e798a6040516109a291815260200190565b60405180910390a45050600160c955505050505050565b6097546001600160a01b031633146109e35760405162461bcd60e51b815260040161045890612183565b6109ed600061192c565b565b6109f7611dc8565b6001600160a01b0382166000908152610100602052604081205460fe9190610a279085906102ec906001906121ce565b81526020808201929092526040908101600020815161016081018352815460ff808216151583526001600160a01b036101009283900416958301959095526001830154938201939093526002820154606082015260038201546080820152600482015460a082015260058201548416151560c0820152600682015460e0820152600782015492810192909252600881015461012083015260090154909116151561014082015292915050565b6097546001600160a01b03163314610afd5760405162461bcd60e51b815260040161045890612183565b60008511610b585760405162461bcd60e51b815260206004820152602260248201527f546f6b656e56657374696e673a206475726174696f6e206d757374206265203e604482015261020360f41b6064820152608401610458565b60008211610ba85760405162461bcd60e51b815260206004820181905260248201527f546f6b656e56657374696e673a20616d6f756e74206d757374206265203e20306044820152606401610458565b81811115610c1e5760405162461bcd60e51b815260206004820152603b60248201527f546f6b656e56657374696e673a20696d6d6564696174656c7952656c6561736160448201527f626c65416d6f756e74206d757374206265203c3d20616d6f756e7400000000006064820152608401610458565b6001841015610c855760405162461bcd60e51b815260206004820152602d60248201527f546f6b656e56657374696e673a20736c696365506572696f645365636f6e647360448201526c206d757374206265203e3d203160981b6064820152608401610458565b604051630f7c469f60e41b81526001600160a01b0389166004820152600090309063f7c469f090602401602060405180830381865afa158015610ccc573d6000803e3d6000fd5b505050506040513d601f19601f82011682018060405250810190610cf091906121e5565b90506000610cfe89896118b4565b90506040518061016001604052806001151581526020018b6001600160a01b031681526020018281526020018a81526020018881526020018781526020018615158152602001858152602001848152602001600081526020016000151581525060fe600084815260200190815260200160002060008201518160000160006101000a81548160ff02191690831515021790555060208201518160000160016101000a8154816001600160a01b0302191690836001600160a01b0316021790555060408201518160010155606082015181600201556080820151816003015560a0820151816004015560c08201518160050160006101000a81548160ff02191690831515021790555060e08201518160060155610100820151816007015561012082015181600801556101408201518160090160006101000a81548160ff021916908315150217905550905050610e5f8460ff546118b490919063ffffffff16565b60ff5560fd805460018181019092557f9346ac6dd7de6b96975fec380d4d994c4c12e6a8897544f22915316cc6cca280018390556001600160a01b038b166000908152610100602052604090205490610eb99082906118b4565b6001600160a01b038c166000818152610100602090815260408083209490945586825260fe90528290209151859233917fc570aaf27c65ed479f8f0715d5775a3af9ed6c9407687029c444d76da531d39091610f9a91815460ff80821615158352600891821c6001600160a01b03166020840152600184015460408401526002840154606084015260038401546080840152600484015460a084015260058401548116151560c0840152600684015460e084015260078401546101008401529083015461012083015260099092015490911615156101408201526101600190565b60405180910390a45050505050505050505050565b6040516bffffffffffffffffffffffff19606084901b1660208201526034810182905260009060540160405160208183030381529060405280519060200120905092915050565b610ffe611dc8565b50600090815260fe6020908152604091829020825161016081018452815460ff808216151583526001600160a01b036101009283900416948301949094526001830154948201949094526002820154606082015260038201546080820152600482015460a082015260058201548316151560c0820152600682015460e082015260078201549381019390935260088101546101208401526009015416151561014082015290565b6097546001600160a01b031633146110cf5760405162461bcd60e51b815260040161045890612183565b600081815260fe6020526040902054819060ff1615156001146110f157600080fd5b600081815260fe602052604090206009015460ff161561111057600080fd5b600082815260fe60205260409020600581015460ff1615156001146111865760405162461bcd60e51b815260206004820152602660248201527f546f6b656e56657374696e673a2076657374696e67206973206e6f74207265766044820152656f6361626c6560d01b6064820152608401610458565b6040805161016081018252825460ff808216151583526001600160a01b03610100928390041660208401526001850154938301939093526002840154606083015260038401546080830152600484015460a083015260058401548316151560c0830152600684015460e0830152600784015490820152600883015461012082015260098301549091161515610140820152600090611223906117ab565b905080156112355761123584826106a9565b6000611252836008015484600601546118c090919063ffffffff16565b60ff5490915061126290826118c0565b60ff5560098301805460ff19166001179055825460405186916001600160a01b03610100909104169033907feee7de70b290c411a060d8bb9b1cba152a40d74147fef0974d7c2b25ac9b718a90600090a45050505050565b600081815260fe6020526040812054829060ff1615156001146112dc57600080fd5b600081815260fe602052604090206009015460ff16156112fb57600080fd5b600083815260fe6020908152604091829020825161016081018452815460ff808216151583526001600160a01b036101009283900416948301949094526001830154948201949094526002820154606082015260038201546080820152600482015460a082015260058201548316151560c0820152600682015460e0820152600782015493810193909352600881015461012084015260098101549091161515610140830152906113ab906117ab565b949350505050565b6097546001600160a01b031633146113dd5760405162461bcd60e51b815260040161045890612183565b60fc546040516001600160a01b0380841692169033907f23c12d5579081c5f1077c04a6b1c114d0f3de239e81a436836d30ecb099ffa1390600090a460fc80546001600160a01b0319166001600160a01b0392909216919091179055565b6097546001600160a01b031633146114655760405162461bcd60e51b815260040161045890612183565b6001600160a01b0381166114ca5760405162461bcd60e51b815260206004820152602660248201527f4f776e61626c653a206e6577206f776e657220697320746865207a65726f206160448201526564647265737360d01b6064820152608401610458565b6104de8161192c565b6114db611dc8565b6114e861032a8484610faf565b9392505050565b6001600160a01b03811660009081526101006020526040812054611514908390610faf565b92915050565b600061152560fd5490565b821061157d5760405162461bcd60e51b815260206004820152602160248201527f546f6b656e56657374696e673a20696e646578206f7574206f6620626f756e646044820152607360f81b6064820152608401610458565b60fd8281548110611590576115906121fe565b90600052602060002001549050919050565b7f360894a13ba1a3210667c828492db98dca3e2076cc3735a920a3ca505d382bbc546001600160a01b031690565b6097546001600160a01b031633146104de5760405162461bcd60e51b815260040161045890612183565b60006116046115a2565b905061160f8461197e565b60008351118061161c5750815b1561162d5761162b8484611a23565b505b7f4910fdfa16fed3260ed0e7147f7cc6da11a60208b5b9406d12a635614ffd9143805460ff1661173e57805460ff191660011781556040516001600160a01b03831660248201526116ac90869060440160408051601f198184030181529190526020810180516001600160e01b0316631b2ce7f360e11b179052611a23565b50805460ff191681556116bd6115a2565b6001600160a01b0316826001600160a01b0316146117355760405162461bcd60e51b815260206004820152602f60248201527f45524331393637557067726164653a207570677261646520627265616b73206660448201526e75727468657220757067726164657360881b6064820152608401610458565b61173e85611b0e565b5050505050565b600054610100900460ff1661176c5760405162461bcd60e51b815260040161045890612214565b611774611b4e565b6109ed611b75565b600054610100900460ff166117a35760405162461bcd60e51b815260040161045890612214565b6109ed611ba5565b604081015160009042908110806117c9575061014083015115156001145b156117e3576101208301516101008401516114e8916118c0565b608083015160608401516117f6916118b4565b81106118105761012083015160e08401516114e8916118c0565b60006118298460600151836118c090919063ffffffff16565b60a0850151909150600061183d8383611bd3565b9050600061184b8284611bdf565b90506000611874886080015161186e848b60e00151611bdf90919063ffffffff16565b90611bd3565b905061188e886101000151826118b490919063ffffffff16565b90506118a8886101200151826118c090919063ffffffff16565b98975050505050505050565b60006114e8828461225f565b60006114e882846121ce565b604080516001600160a01b0385811660248301528416604482015260648082018490528251808303909101815260849091019091526020810180516001600160e01b03166323b872dd60e01b179052611926908590611beb565b50505050565b609780546001600160a01b038381166001600160a01b0319831681179093556040519116919082907f8be0079c531659141344cd1fd0a4f28419497f9722a3daafe3b4186f6b6457e090600090a35050565b803b6119e25760405162461bcd60e51b815260206004820152602d60248201527f455243313936373a206e657720696d706c656d656e746174696f6e206973206e60448201526c1bdd08184818dbdb9d1c9858dd609a1b6064820152608401610458565b7f360894a13ba1a3210667c828492db98dca3e2076cc3735a920a3ca505d382bbc80546001600160a01b0319166001600160a01b0392909216919091179055565b6060823b611a825760405162461bcd60e51b815260206004820152602660248201527f416464726573733a2064656c65676174652063616c6c20746f206e6f6e2d636f6044820152651b9d1c9858dd60d21b6064820152608401610458565b600080846001600160a01b031684604051611a9d91906122a3565b600060405180830381855af49150503d8060008114611ad8576040519150601f19603f3d011682016040523d82523d6000602084013e611add565b606091505b5091509150611b05828260405180606001604052806027815260200161235160279139611cbd565b95945050505050565b611b178161197e565b6040516001600160a01b038216907fbc7cd75a20ee27fd9adebab32041f755214dbc6bffa90cc0225b39da2e5c2d3b90600090a250565b600054610100900460ff166109ed5760405162461bcd60e51b815260040161045890612214565b600054610100900460ff16611b9c5760405162461bcd60e51b815260040161045890612214565b6109ed3361192c565b600054610100900460ff16611bcc5760405162461bcd60e51b815260040161045890612214565b600160c955565b60006114e882846122bf565b60006114e882846122e1565b6000611c40826040518060400160405280602081526020017f5361666545524332303a206c6f772d6c6576656c2063616c6c206661696c6564815250856001600160a01b0316611cf69092919063ffffffff16565b8051909150156106a45780806020019051810190611c5e9190612300565b6106a45760405162461bcd60e51b815260206004820152602a60248201527f5361666545524332303a204552433230206f7065726174696f6e20646964206e6044820152691bdd081cdd58d8d9595960b21b6064820152608401610458565b60608315611ccc5750816114e8565b825115611cdc5782518084602001fd5b8160405162461bcd60e51b8152600401610458919061231d565b60606113ab848460008585843b611d4f5760405162461bcd60e51b815260206004820152601d60248201527f416464726573733a2063616c6c20746f206e6f6e2d636f6e74726163740000006044820152606401610458565b600080866001600160a01b03168587604051611d6b91906122a3565b60006040518083038185875af1925050503d8060008114611da8576040519150601f19603f3d011682016040523d82523d6000602084013e611dad565b606091505b5091509150611dbd828286611cbd565b979650505050505050565b60405180610160016040528060001515815260200160006001600160a01b03168152602001600081526020016000815260200160008152602001600081526020016000151581526020016000815260200160008152602001600081526020016000151581525090565b80356001600160a01b0381168114611e4857600080fd5b919050565b600060208284031215611e5f57600080fd5b6114e882611e31565b634e487b7160e01b600052604160045260246000fd5b60008060408385031215611e9157600080fd5b611e9a83611e31565b9150602083013567ffffffffffffffff80821115611eb757600080fd5b818501915085601f830112611ecb57600080fd5b813581811115611edd57611edd611e68565b604051601f8201601f19908116603f01168101908382118183101715611f0557611f05611e68565b81604052828152886020848701011115611f1e57600080fd5b8260208601602083013760006020848301015280955050505050509250929050565b60008060408385031215611f5357600080fd5b611f5c83611e31565b9150611f6a60208401611e31565b90509250929050565b60008060408385031215611f8657600080fd5b50508035926020909101359150565b81511515815261016081016020830151611fba60208401826001600160a01b03169052565b5060408301516040830152606083015160608301526080830151608083015260a083015160a083015260c0830151611ff660c084018215159052565b5060e0838101519083015261010080840151908301526101208084015190830152610140928301511515929091019190915290565b80151581146104de57600080fd5b600080600080600080600080610100898b03121561205657600080fd5b61205f89611e31565b97506020890135965060408901359550606089013594506080890135935060a089013561208b8161202b565b979a969950949793969295929450505060c08201359160e0013590565b600080604083850312156120bb57600080fd5b6120c483611e31565b946020939093013593505050565b6000602082840312156120e457600080fd5b5035919050565b6020808252602c908201527f46756e6374696f6e206d7573742062652063616c6c6564207468726f7567682060408201526b19195b1959d85d1958d85b1b60a21b606082015260800190565b6020808252602c908201527f46756e6374696f6e206d7573742062652063616c6c6564207468726f7567682060408201526b6163746976652070726f787960a01b606082015260800190565b6020808252818101527f4f776e61626c653a2063616c6c6572206973206e6f7420746865206f776e6572604082015260600190565b634e487b7160e01b600052601160045260246000fd5b6000828210156121e0576121e06121b8565b500390565b6000602082840312156121f757600080fd5b5051919050565b634e487b7160e01b600052603260045260246000fd5b6020808252602b908201527f496e697469616c697a61626c653a20636f6e7472616374206973206e6f74206960408201526a6e697469616c697a696e6760a81b606082015260800190565b60008219821115612272576122726121b8565b500190565b60005b8381101561229257818101518382015260200161227a565b838111156119265750506000910152565b600082516122b5818460208701612277565b9190910192915050565b6000826122dc57634e487b7160e01b600052601260045260246000fd5b500490565b60008160001904831182151516156122fb576122fb6121b8565b500290565b60006020828403121561231257600080fd5b81516114e88161202b565b602081526000825180602084015261233c816040850160208701612277565b601f01601f1916919091016040019291505056fe416464726573733a206c6f772d6c6576656c2064656c65676174652063616c6c206661696c6564a264697066735822122049f0431c0b5de9a6a02d0bac4e9d639e2f5df6cafa04e3b3cf8accdf56c32c8464736f6c634300080b0033",
  "devdoc": {
    "kind": "dev",
    "methods": {
      "computeNextVestingScheduleIdForHolder(address)": {
        "details": "Computes the next vesting schedule identifier for a given holder address."
      },
      "computeReleasableAmount(bytes32)": {
        "returns": {
          "_0": "the vested amount"
        }
      },
      "computeVestingScheduleIdForAddressAndIndex(address,uint256)": {
        "details": "Computes the vesting schedule identifier for an address and an index."
      },
      "createVestingSchedule(address,uint256,uint256,uint256,uint256,bool,uint256,uint256)": {
        "params": {
          "_amount": "total amount of tokens to be released at the end of the vesting",
          "_beneficiary": "address of the beneficiary to whom vested tokens are transferred",
          "_cliff": "duration in seconds of the cliff in which tokens will begin to vest",
          "_duration": "duration in seconds of the period in which the tokens will vest",
          "_immediatelyReleasableAmount": "total amount of tokens to be released at the beginning of the vesting",
          "_revocable": "whether the vesting is revocable or not",
          "_slicePeriodSeconds": "duration of a slice period for the vesting in seconds",
          "_start": "start time of the vesting period"
        }
      },
      "getLastVestingScheduleForHolder(address)": {
        "details": "Returns the last vesting schedule for a given holder address."
      },
      "getToken()": {
        "details": "Returns the address of the ERC20 token managed by the vesting contract."
      },
      "getTreasury()": {
        "details": "Returns the address of the wallet smart contract uses to fund vesting."
      },
      "getVestingIdAtIndex(uint256)": {
        "details": "Returns the vesting schedule id at the given index.",
        "returns": {
          "_0": "the vesting id"
        }
      },
      "getVestingSchedule(bytes32)": {
        "returns": {
          "_0": "the vesting schedule structure information"
        }
      },
      "getVestingScheduleByAddressAndIndex(address,uint256)": {
        "returns": {
          "_0": "the vesting schedule structure information"
        }
      },
      "getVestingSchedulesCount()": {
        "details": "Returns the number of vesting schedules managed by this contract.",
        "returns": {
          "_0": "the number of vesting schedules"
        }
      },
      "getVestingSchedulesCountByBeneficiary(address)": {
        "details": "Returns the number of vesting schedules associated to a beneficiary.",
        "returns": {
          "_0": "the number of vesting schedules"
        }
      },
      "getVestingSchedulesTotalAmount()": {
        "returns": {
          "_0": "the total amount of vesting schedules"
        }
      },
      "owner()": {
        "details": "Returns the address of the current owner."
      },
      "postConstruct(address,address)": {
        "details": "UUPS initializer, initializes a vesting contract",
        "params": {
          "token_": "address of the ERC20 token contract, non-zero, immutable",
          "treasury_": "address of the wallet funding vesting contract, mutable"
        }
      },
      "release(bytes32,uint256)": {
        "params": {
          "amount": "the amount to release",
          "vestingScheduleId": "the vesting schedule identifier"
        }
      },
      "renounceOwnership()": {
        "details": "Leaves the contract without owner. It will not be possible to call `onlyOwner` functions anymore. Can only be called by the current owner. NOTE: Renouncing ownership will leave the contract without an owner, thereby removing any functionality that is only available to the owner."
      },
      "revoke(bytes32)": {
        "params": {
          "vestingScheduleId": "the vesting schedule identifier"
        }
      },
      "setTreasury(address)": {
        "details": "Updates the wallet address used by the smart contract to fund vesting.",
        "params": {
          "treasury_": "wallet address to set to fund vesting"
        }
      },
      "transferOwnership(address)": {
        "details": "Transfers ownership of the contract to a new account (`newOwner`). Can only be called by the current owner."
      },
      "upgradeTo(address)": {
        "details": "Upgrade the implementation of the proxy to `newImplementation`. Calls {_authorizeUpgrade}. Emits an {Upgraded} event."
      },
      "upgradeToAndCall(address,bytes)": {
        "details": "Upgrade the implementation of the proxy to `newImplementation`, and subsequently execute the function call encoded in `data`. Calls {_authorizeUpgrade}. Emits an {Upgraded} event."
      }
    },
    "title": "TokenVesting",
    "version": 1
  },
  "userdoc": {
    "kind": "user",
    "methods": {
      "computeReleasableAmount(bytes32)": {
        "notice": "Computes the vested amount of tokens for the given vesting schedule identifier."
      },
      "createVestingSchedule(address,uint256,uint256,uint256,uint256,bool,uint256,uint256)": {
        "notice": "Creates a new vesting schedule for a beneficiary."
      },
      "getVestingSchedule(bytes32)": {
        "notice": "Returns the vesting schedule information for a given identifier."
      },
      "getVestingScheduleByAddressAndIndex(address,uint256)": {
        "notice": "Returns the vesting schedule information for a given holder and index."
      },
      "getVestingSchedulesTotalAmount()": {
        "notice": "Returns the total amount of vesting schedules."
      },
      "release(bytes32,uint256)": {
        "notice": "Release vested amount of tokens."
      },
      "revoke(bytes32)": {
        "notice": "Revokes the vesting schedule for given identifier."
      }
    },
    "version": 1
  },
  "storageLayout": {
    "storage": [
      {
        "astId": 540,
        "contract": "contracts/TokenVesting.sol:TokenVesting",
        "label": "_initialized",
        "offset": 0,
        "slot": "0",
        "type": "t_bool"
      },
      {
        "astId": 543,
        "contract": "contracts/TokenVesting.sol:TokenVesting",
        "label": "_initializing",
        "offset": 1,
        "slot": "0",
        "type": "t_bool"
      },
      {
        "astId": 522,
        "contract": "contracts/TokenVesting.sol:TokenVesting",
        "label": "__gap",
        "offset": 0,
        "slot": "1",
        "type": "t_array(t_uint256)50_storage"
      },
      {
        "astId": 717,
        "contract": "contracts/TokenVesting.sol:TokenVesting",
        "label": "__gap",
        "offset": 0,
        "slot": "51",
        "type": "t_array(t_uint256)50_storage"
      },
      {
        "astId": 1064,
        "contract": "contracts/TokenVesting.sol:TokenVesting",
        "label": "__gap",
        "offset": 0,
        "slot": "101",
        "type": "t_array(t_uint256)50_storage"
      },
      {
        "astId": 10,
        "contract": "contracts/TokenVesting.sol:TokenVesting",
        "label": "_owner",
        "offset": 0,
        "slot": "151",
        "type": "t_address"
      },
      {
        "astId": 124,
        "contract": "contracts/TokenVesting.sol:TokenVesting",
        "label": "__gap",
        "offset": 0,
        "slot": "152",
        "type": "t_array(t_uint256)49_storage"
      },
      {
        "astId": 732,
        "contract": "contracts/TokenVesting.sol:TokenVesting",
        "label": "_status",
        "offset": 0,
        "slot": "201",
        "type": "t_uint256"
      },
      {
        "astId": 775,
        "contract": "contracts/TokenVesting.sol:TokenVesting",
        "label": "__gap",
        "offset": 0,
        "slot": "202",
        "type": "t_array(t_uint256)49_storage"
      },
      {
        "astId": 2820,
        "contract": "contracts/TokenVesting.sol:TokenVesting",
        "label": "_token",
        "offset": 0,
        "slot": "251",
        "type": "t_address"
      },
      {
        "astId": 2822,
        "contract": "contracts/TokenVesting.sol:TokenVesting",
        "label": "_treasury",
        "offset": 0,
        "slot": "252",
        "type": "t_address"
      },
      {
        "astId": 2825,
        "contract": "contracts/TokenVesting.sol:TokenVesting",
        "label": "vestingSchedulesIds",
        "offset": 0,
        "slot": "253",
        "type": "t_array(t_bytes32)dyn_storage"
      },
      {
        "astId": 2830,
        "contract": "contracts/TokenVesting.sol:TokenVesting",
        "label": "vestingSchedules",
        "offset": 0,
        "slot": "254",
        "type": "t_mapping(t_bytes32,t_struct(VestingSchedule)2818_storage)"
      },
      {
        "astId": 2832,
        "contract": "contracts/TokenVesting.sol:TokenVesting",
        "label": "vestingSchedulesTotalAmount",
        "offset": 0,
        "slot": "255",
        "type": "t_uint256"
      },
      {
        "astId": 2836,
        "contract": "contracts/TokenVesting.sol:TokenVesting",
        "label": "holdersVestingCount",
        "offset": 0,
        "slot": "256",
        "type": "t_mapping(t_address,t_uint256)"
      }
    ],
    "types": {
      "t_address": {
        "encoding": "inplace",
        "label": "address",
        "numberOfBytes": "20"
      },
      "t_array(t_bytes32)dyn_storage": {
        "base": "t_bytes32",
        "encoding": "dynamic_array",
        "label": "bytes32[]",
        "numberOfBytes": "32"
      },
      "t_array(t_uint256)49_storage": {
        "base": "t_uint256",
        "encoding": "inplace",
        "label": "uint256[49]",
        "numberOfBytes": "1568"
      },
      "t_array(t_uint256)50_storage": {
        "base": "t_uint256",
        "encoding": "inplace",
        "label": "uint256[50]",
        "numberOfBytes": "1600"
      },
      "t_bool": {
        "encoding": "inplace",
        "label": "bool",
        "numberOfBytes": "1"
      },
      "t_bytes32": {
        "encoding": "inplace",
        "label": "bytes32",
        "numberOfBytes": "32"
      },
      "t_mapping(t_address,t_uint256)": {
        "encoding": "mapping",
        "key": "t_address",
        "label": "mapping(address => uint256)",
        "numberOfBytes": "32",
        "value": "t_uint256"
      },
      "t_mapping(t_bytes32,t_struct(VestingSchedule)2818_storage)": {
        "encoding": "mapping",
        "key": "t_bytes32",
        "label": "mapping(bytes32 => struct TokenVesting.VestingSchedule)",
        "numberOfBytes": "32",
        "value": "t_struct(VestingSchedule)2818_storage"
      },
      "t_struct(VestingSchedule)2818_storage": {
        "encoding": "inplace",
        "label": "struct TokenVesting.VestingSchedule",
        "members": [
          {
            "astId": 2797,
            "contract": "contracts/TokenVesting.sol:TokenVesting",
            "label": "initialized",
            "offset": 0,
            "slot": "0",
            "type": "t_bool"
          },
          {
            "astId": 2799,
            "contract": "contracts/TokenVesting.sol:TokenVesting",
            "label": "beneficiary",
            "offset": 1,
            "slot": "0",
            "type": "t_address"
          },
          {
            "astId": 2801,
            "contract": "contracts/TokenVesting.sol:TokenVesting",
            "label": "cliff",
            "offset": 0,
            "slot": "1",
            "type": "t_uint256"
          },
          {
            "astId": 2803,
            "contract": "contracts/TokenVesting.sol:TokenVesting",
            "label": "start",
            "offset": 0,
            "slot": "2",
            "type": "t_uint256"
          },
          {
            "astId": 2805,
            "contract": "contracts/TokenVesting.sol:TokenVesting",
            "label": "duration",
            "offset": 0,
            "slot": "3",
            "type": "t_uint256"
          },
          {
            "astId": 2807,
            "contract": "contracts/TokenVesting.sol:TokenVesting",
            "label": "slicePeriodSeconds",
            "offset": 0,
            "slot": "4",
            "type": "t_uint256"
          },
          {
            "astId": 2809,
            "contract": "contracts/TokenVesting.sol:TokenVesting",
            "label": "revocable",
            "offset": 0,
            "slot": "5",
            "type": "t_bool"
          },
          {
            "astId": 2811,
            "contract": "contracts/TokenVesting.sol:TokenVesting",
            "label": "amountTotal",
            "offset": 0,
            "slot": "6",
            "type": "t_uint256"
          },
          {
            "astId": 2813,
            "contract": "contracts/TokenVesting.sol:TokenVesting",
            "label": "immediatelyReleasableAmount",
            "offset": 0,
            "slot": "7",
            "type": "t_uint256"
          },
          {
            "astId": 2815,
            "contract": "contracts/TokenVesting.sol:TokenVesting",
            "label": "released",
            "offset": 0,
            "slot": "8",
            "type": "t_uint256"
          },
          {
            "astId": 2817,
            "contract": "contracts/TokenVesting.sol:TokenVesting",
            "label": "revoked",
            "offset": 0,
            "slot": "9",
            "type": "t_bool"
          }
        ],
        "numberOfBytes": "320"
      },
      "t_uint256": {
        "encoding": "inplace",
        "label": "uint256",
        "numberOfBytes": "32"
      }
    }
  }
}