{
  "address": "0x3F9E2F32161f22ca846E6d31ced4c405D9c21FE1",
  "abi": [
    {
      "anonymous": false,
      "inputs": [
        {
          "indexed": false,
          "internalType": "address",
          "name": "previousAdmin",
          "type": "address"
        },
        {
          "indexed": false,
          "internalType": "address",
          "name": "newAdmin",
          "type": "address"
        }
      ],
      "name": "AdminChanged",
      "type": "event"
    },
    {
      "anonymous": false,
      "inputs": [
        {
          "indexed": true,
          "internalType": "address",
          "name": "beacon",
          "type": "address"
        }
      ],
      "name": "BeaconUpgraded",
      "type": "event"
    },
    {
      "anonymous": false,
      "inputs": [
        {
          "indexed": true,
          "internalType": "address",
          "name": "previousOwner",
          "type": "address"
        },
        {
          "indexed": true,
          "internalType": "address",
          "name": "newOwner",
          "type": "address"
        }
      ],
      "name": "OwnershipTransferred",
      "type": "event"
    },
    {
      "anonymous": false,
      "inputs": [
        {
          "indexed": true,
          "internalType": "address",
          "name": "_by",
          "type": "address"
        },
        {
          "indexed": true,
          "internalType": "address",
          "name": "_to",
          "type": "address"
        },
        {
          "indexed": true,
          "internalType": "bytes32",
          "name": "_vestingScheduleId",
          "type": "bytes32"
        },
        {
          "indexed": false,
          "internalType": "uint256",
          "name": "_amount",
          "type": "uint256"
        }
      ],
      "name": "Released",
      "type": "event"
    },
    {
      "anonymous": false,
      "inputs": [
        {
          "indexed": true,
          "internalType": "address",
          "name": "_by",
          "type": "address"
        },
        {
          "indexed": true,
          "internalType": "address",
          "name": "_beneficiary",
          "type": "address"
        },
        {
          "indexed": true,
          "internalType": "bytes32",
          "name": "_vestingScheduleId",
          "type": "bytes32"
        }
      ],
      "name": "Revoked",
      "type": "event"
    },
    {
      "anonymous": false,
      "inputs": [
        {
          "indexed": true,
          "internalType": "address",
          "name": "_by",
          "type": "address"
        },
        {
          "indexed": true,
          "internalType": "address",
          "name": "_oldVal",
          "type": "address"
        },
        {
          "indexed": true,
          "internalType": "address",
          "name": "_newVal",
          "type": "address"
        }
      ],
      "name": "TreasuryUpdated",
      "type": "event"
    },
    {
      "anonymous": false,
      "inputs": [
        {
          "indexed": true,
          "internalType": "address",
          "name": "implementation",
          "type": "address"
        }
      ],
      "name": "Upgraded",
      "type": "event"
    },
    {
      "anonymous": false,
      "inputs": [
        {
          "indexed": true,
          "internalType": "address",
          "name": "_by",
          "type": "address"
        },
        {
          "indexed": true,
          "internalType": "address",
          "name": "_beneficiary",
          "type": "address"
        },
        {
          "indexed": true,
          "internalType": "bytes32",
          "name": "_vestingScheduleId",
          "type": "bytes32"
        },
        {
          "components": [
            {
              "internalType": "bool",
              "name": "initialized",
              "type": "bool"
            },
            {
              "internalType": "bool",
              "name": "revocable",
              "type": "bool"
            },
            {
              "internalType": "bool",
              "name": "revoked",
              "type": "bool"
            },
            {
              "internalType": "address",
              "name": "beneficiary",
              "type": "address"
            },
            {
              "internalType": "uint32",
              "name": "cliff",
              "type": "uint32"
            },
            {
              "internalType": "uint32",
              "name": "start",
              "type": "uint32"
            },
            {
              "internalType": "uint32",
              "name": "duration",
              "type": "uint32"
            },
            {
              "internalType": "uint32",
              "name": "slicePeriodSeconds",
              "type": "uint32"
            },
            {
              "internalType": "uint128",
              "name": "amountTotal",
              "type": "uint128"
            },
            {
              "internalType": "uint128",
              "name": "immediatelyReleasableAmount",
              "type": "uint128"
            },
            {
              "internalType": "uint128",
              "name": "released",
              "type": "uint128"
            }
          ],
          "indexed": false,
          "internalType": "struct TokenVesting.VestingSchedule",
          "name": "_schedule",
          "type": "tuple"
        }
      ],
      "name": "VestingScheduleCreated",
      "type": "event"
    },
    {
      "inputs": [
        {
          "internalType": "address",
          "name": "holder",
          "type": "address"
        }
      ],
      "name": "computeNextVestingScheduleIdForHolder",
      "outputs": [
        {
          "internalType": "bytes32",
          "name": "",
          "type": "bytes32"
        }
      ],
      "stateMutability": "view",
      "type": "function"
    },
    {
      "inputs": [
        {
          "internalType": "bytes32",
          "name": "vestingScheduleId",
          "type": "bytes32"
        }
      ],
      "name": "computeReleasableAmount",
      "outputs": [
        {
          "internalType": "uint256",
          "name": "",
          "type": "uint256"
        }
      ],
      "stateMutability": "view",
      "type": "function"
    },
    {
      "inputs": [
        {
          "internalType": "address",
          "name": "holder",
          "type": "address"
        },
        {
          "internalType": "uint256",
          "name": "index",
          "type": "uint256"
        }
      ],
      "name": "computeVestingScheduleIdForAddressAndIndex",
      "outputs": [
        {
          "internalType": "bytes32",
          "name": "",
          "type": "bytes32"
        }
      ],
      "stateMutability": "pure",
      "type": "function"
    },
    {
      "inputs": [
        {
          "internalType": "address",
          "name": "_beneficiary",
          "type": "address"
        },
        {
          "internalType": "uint32",
          "name": "_start",
          "type": "uint32"
        },
        {
          "internalType": "uint32",
          "name": "_cliff",
          "type": "uint32"
        },
        {
          "internalType": "uint32",
          "name": "_duration",
          "type": "uint32"
        },
        {
          "internalType": "uint32",
          "name": "_slicePeriodSeconds",
          "type": "uint32"
        },
        {
          "internalType": "bool",
          "name": "_revocable",
          "type": "bool"
        },
        {
          "internalType": "uint128",
          "name": "_amount",
          "type": "uint128"
        },
        {
          "internalType": "uint128",
          "name": "_immediatelyReleasableAmount",
          "type": "uint128"
        }
      ],
      "name": "createVestingSchedule",
      "outputs": [],
      "stateMutability": "nonpayable",
      "type": "function"
    },
    {
      "inputs": [
        {
          "internalType": "address",
          "name": "holder",
          "type": "address"
        }
      ],
      "name": "getLastVestingScheduleForHolder",
      "outputs": [
        {
          "components": [
            {
              "internalType": "bool",
              "name": "initialized",
              "type": "bool"
            },
            {
              "internalType": "bool",
              "name": "revocable",
              "type": "bool"
            },
            {
              "internalType": "bool",
              "name": "revoked",
              "type": "bool"
            },
            {
              "internalType": "address",
              "name": "beneficiary",
              "type": "address"
            },
            {
              "internalType": "uint32",
              "name": "cliff",
              "type": "uint32"
            },
            {
              "internalType": "uint32",
              "name": "start",
              "type": "uint32"
            },
            {
              "internalType": "uint32",
              "name": "duration",
              "type": "uint32"
            },
            {
              "internalType": "uint32",
              "name": "slicePeriodSeconds",
              "type": "uint32"
            },
            {
              "internalType": "uint128",
              "name": "amountTotal",
              "type": "uint128"
            },
            {
              "internalType": "uint128",
              "name": "immediatelyReleasableAmount",
              "type": "uint128"
            },
            {
              "internalType": "uint128",
              "name": "released",
              "type": "uint128"
            }
          ],
          "internalType": "struct TokenVesting.VestingSchedule",
          "name": "",
          "type": "tuple"
        }
      ],
      "stateMutability": "view",
      "type": "function"
    },
    {
      "inputs": [],
      "name": "getToken",
      "outputs": [
        {
          "internalType": "address",
          "name": "",
          "type": "address"
        }
      ],
      "stateMutability": "view",
      "type": "function"
    },
    {
      "inputs": [],
      "name": "getTreasury",
      "outputs": [
        {
          "internalType": "address",
          "name": "",
          "type": "address"
        }
      ],
      "stateMutability": "view",
      "type": "function"
    },
    {
      "inputs": [
        {
          "internalType": "uint256",
          "name": "index",
          "type": "uint256"
        }
      ],
      "name": "getVestingIdAtIndex",
      "outputs": [
        {
          "internalType": "bytes32",
          "name": "",
          "type": "bytes32"
        }
      ],
      "stateMutability": "view",
      "type": "function"
    },
    {
      "inputs": [
        {
          "internalType": "bytes32",
          "name": "vestingScheduleId",
          "type": "bytes32"
        }
      ],
      "name": "getVestingSchedule",
      "outputs": [
        {
          "components": [
            {
              "internalType": "bool",
              "name": "initialized",
              "type": "bool"
            },
            {
              "internalType": "bool",
              "name": "revocable",
              "type": "bool"
            },
            {
              "internalType": "bool",
              "name": "revoked",
              "type": "bool"
            },
            {
              "internalType": "address",
              "name": "beneficiary",
              "type": "address"
            },
            {
              "internalType": "uint32",
              "name": "cliff",
              "type": "uint32"
            },
            {
              "internalType": "uint32",
              "name": "start",
              "type": "uint32"
            },
            {
              "internalType": "uint32",
              "name": "duration",
              "type": "uint32"
            },
            {
              "internalType": "uint32",
              "name": "slicePeriodSeconds",
              "type": "uint32"
            },
            {
              "internalType": "uint128",
              "name": "amountTotal",
              "type": "uint128"
            },
            {
              "internalType": "uint128",
              "name": "immediatelyReleasableAmount",
              "type": "uint128"
            },
            {
              "internalType": "uint128",
              "name": "released",
              "type": "uint128"
            }
          ],
          "internalType": "struct TokenVesting.VestingSchedule",
          "name": "",
          "type": "tuple"
        }
      ],
      "stateMutability": "view",
      "type": "function"
    },
    {
      "inputs": [
        {
          "internalType": "address",
          "name": "holder",
          "type": "address"
        },
        {
          "internalType": "uint256",
          "name": "index",
          "type": "uint256"
        }
      ],
      "name": "getVestingScheduleByAddressAndIndex",
      "outputs": [
        {
          "components": [
            {
              "internalType": "bool",
              "name": "initialized",
              "type": "bool"
            },
            {
              "internalType": "bool",
              "name": "revocable",
              "type": "bool"
            },
            {
              "internalType": "bool",
              "name": "revoked",
              "type": "bool"
            },
            {
              "internalType": "address",
              "name": "beneficiary",
              "type": "address"
            },
            {
              "internalType": "uint32",
              "name": "cliff",
              "type": "uint32"
            },
            {
              "internalType": "uint32",
              "name": "start",
              "type": "uint32"
            },
            {
              "internalType": "uint32",
              "name": "duration",
              "type": "uint32"
            },
            {
              "internalType": "uint32",
              "name": "slicePeriodSeconds",
              "type": "uint32"
            },
            {
              "internalType": "uint128",
              "name": "amountTotal",
              "type": "uint128"
            },
            {
              "internalType": "uint128",
              "name": "immediatelyReleasableAmount",
              "type": "uint128"
            },
            {
              "internalType": "uint128",
              "name": "released",
              "type": "uint128"
            }
          ],
          "internalType": "struct TokenVesting.VestingSchedule",
          "name": "",
          "type": "tuple"
        }
      ],
      "stateMutability": "view",
      "type": "function"
    },
    {
      "inputs": [],
      "name": "getVestingSchedulesCount",
      "outputs": [
        {
          "internalType": "uint256",
          "name": "",
          "type": "uint256"
        }
      ],
      "stateMutability": "view",
      "type": "function"
    },
    {
      "inputs": [
        {
          "internalType": "address",
          "name": "_beneficiary",
          "type": "address"
        }
      ],
      "name": "getVestingSchedulesCountByBeneficiary",
      "outputs": [
        {
          "internalType": "uint256",
          "name": "",
          "type": "uint256"
        }
      ],
      "stateMutability": "view",
      "type": "function"
    },
    {
      "inputs": [],
      "name": "getVestingSchedulesTotalAmount",
      "outputs": [
        {
          "internalType": "uint256",
          "name": "",
          "type": "uint256"
        }
      ],
      "stateMutability": "view",
      "type": "function"
    },
    {
      "inputs": [],
      "name": "owner",
      "outputs": [
        {
          "internalType": "address",
          "name": "",
          "type": "address"
        }
      ],
      "stateMutability": "view",
      "type": "function"
    },
    {
      "inputs": [
        {
          "internalType": "address",
          "name": "token_",
          "type": "address"
        },
        {
          "internalType": "address",
          "name": "treasury_",
          "type": "address"
        }
      ],
      "name": "postConstruct",
      "outputs": [],
      "stateMutability": "nonpayable",
      "type": "function"
    },
    {
      "inputs": [
        {
          "internalType": "bytes32",
          "name": "vestingScheduleId",
          "type": "bytes32"
        },
        {
          "internalType": "uint128",
          "name": "amount",
          "type": "uint128"
        }
      ],
      "name": "release",
      "outputs": [],
      "stateMutability": "nonpayable",
      "type": "function"
    },
    {
      "inputs": [],
      "name": "renounceOwnership",
      "outputs": [],
      "stateMutability": "nonpayable",
      "type": "function"
    },
    {
      "inputs": [
        {
          "internalType": "bytes32",
          "name": "vestingScheduleId",
          "type": "bytes32"
        }
      ],
      "name": "revoke",
      "outputs": [],
      "stateMutability": "nonpayable",
      "type": "function"
    },
    {
      "inputs": [
        {
          "internalType": "address",
          "name": "treasury_",
          "type": "address"
        }
      ],
      "name": "setTreasury",
      "outputs": [],
      "stateMutability": "nonpayable",
      "type": "function"
    },
    {
      "inputs": [
        {
          "internalType": "address",
          "name": "newOwner",
          "type": "address"
        }
      ],
      "name": "transferOwnership",
      "outputs": [],
      "stateMutability": "nonpayable",
      "type": "function"
    },
    {
      "inputs": [
        {
          "internalType": "address",
          "name": "newImplementation",
          "type": "address"
        }
      ],
      "name": "upgradeTo",
      "outputs": [],
      "stateMutability": "nonpayable",
      "type": "function"
    },
    {
      "inputs": [
        {
          "internalType": "address",
          "name": "newImplementation",
          "type": "address"
        },
        {
          "internalType": "bytes",
          "name": "data",
          "type": "bytes"
        }
      ],
      "name": "upgradeToAndCall",
      "outputs": [],
      "stateMutability": "payable",
      "type": "function"
    }
  ],
  "transactionHash": "0xa67bfaf7e38c312238d3a07bb2fa8119692033b3f51dfb0c63eb8adfa2e3bf07",
  "args": [],
  "numDeployments": 1,
  "solcInputHash": "abea8426c955428f80a62657c607fead",
  "bytecode": "0x60a06040523060805234801561001457600080fd5b506080516127f36100456000396000818161041a01528181610463015281816104ec015261052c01526127f36000f3fe6080604052600436106101355760003560e01c80637e913dc6116100ab578063ea1bb3d51161006f578063ea1bb3d51461034f578063f0f442601461036f578063f2fde38b1461038f578063f51321d7146103af578063f7c469f0146103cf578063f9079b37146103ef57600080fd5b80637e913dc6146102a45780638af104da146102d15780638da5cb5b146102f15780639ef346b41461030f578063b75c7dc61461032f57600080fd5b80634f1ef286116100fd5780634f1ef286146101e55780635a7bb69a146101f857806363bada4f1461022f578063646fd9091461024f578063715018a61461026f5780637151f0d71461028457600080fd5b8063130836171461013a57806321df0da71461015e5780633659cfe6146101905780633b19e84a146101b257806348deb471146101d0575b600080fd5b34801561014657600080fd5b5060fd545b6040519081526020015b60405180910390f35b34801561016a57600080fd5b5060fb546001600160a01b03165b6040516001600160a01b039091168152602001610155565b34801561019c57600080fd5b506101b06101ab3660046120c2565b61040f565b005b3480156101be57600080fd5b5060fc546001600160a01b0316610178565b3480156101dc57600080fd5b5060ff5461014b565b6101b06101f33660046120f3565b6104e1565b34801561020457600080fd5b5061014b6102133660046120c2565b6001600160a01b03166000908152610100602052604090205490565b34801561023b57600080fd5b506101b061024a3660046121b5565b61059b565b34801561025b57600080fd5b506101b061026a3660046121ff565b6106a9565b34801561027b57600080fd5b506101b0610a38565b34801561029057600080fd5b506101b061029f366004612244565b610a6e565b3480156102b057600080fd5b506102c46102bf3660046120c2565b610ffd565b60405161015591906122dd565b3480156102dd57600080fd5b5061014b6102ec3660046123c4565b61110b565b3480156102fd57600080fd5b506097546001600160a01b0316610178565b34801561031b57600080fd5b506102c461032a3660046123ee565b611152565b34801561033b57600080fd5b506101b061034a3660046123ee565b61122f565b34801561035b57600080fd5b5061014b61036a3660046123ee565b6114a3565b34801561037b57600080fd5b506101b061038a3660046120c2565b6115b1565b34801561039b57600080fd5b506101b06103aa3660046120c2565b611639565b3480156103bb57600080fd5b506102c46103ca3660046123c4565b6116d1565b3480156103db57600080fd5b5061014b6103ea3660046120c2565b6116ed565b3480156103fb57600080fd5b5061014b61040a3660046123ee565b611718565b306001600160a01b037f00000000000000000000000000000000000000000000000000000000000000001614156104615760405162461bcd60e51b815260040161045890612407565b60405180910390fd5b7f00000000000000000000000000000000000000000000000000000000000000006001600160a01b03166104936117a0565b6001600160a01b0316146104b95760405162461bcd60e51b815260040161045890612453565b6104c2816117ce565b604080516000808252602082019092526104de918391906117f8565b50565b306001600160a01b037f000000000000000000000000000000000000000000000000000000000000000016141561052a5760405162461bcd60e51b815260040161045890612407565b7f00000000000000000000000000000000000000000000000000000000000000006001600160a01b031661055c6117a0565b6001600160a01b0316146105825760405162461bcd60e51b815260040161045890612453565b61058b826117ce565b610597828260016117f8565b5050565b600054610100900460ff166105b65760005460ff16156105ba565b303b155b61061d5760405162461bcd60e51b815260206004820152602e60248201527f496e697469616c697a61626c653a20636f6e747261637420697320616c72656160448201526d191e481a5b9a5d1a585b1a5e995960921b6064820152608401610458565b600054610100900460ff1615801561063f576000805461ffff19166101011790555b6001600160a01b03831661065257600080fd5b60fb80546001600160a01b038086166001600160a01b03199283161790925560fc80549285169290911691909117905561068a611943565b61069261197a565b80156106a4576000805461ff00191690555b505050565b600260c95414156106fc5760405162461bcd60e51b815260206004820152601f60248201527f5265656e7472616e637947756172643a207265656e7472616e742063616c6c006044820152606401610458565b600260c955600082815260fe6020526040902054829060ff16151560011461072357600080fd5b600081815260fe602052604090205462010000900460ff161561074557600080fd5b600083815260fe602052604090208054609754336001600160a01b036301000000909304831681149290911614818061077b5750805b6107f85760405162461bcd60e51b815260206004820152604260248201527f546f6b656e56657374696e673a206f6e6c792062656e6566696369617279206160448201527f6e64206f776e65722063616e2072656c656173652076657374656420746f6b656064820152616e7360f01b608482015260a401610458565b6040805161016081018252845460ff808216151583526101008083048216151560208501526201000083049091161515938301939093526001600160a01b036301000000820416606083015263ffffffff600160b81b820481166080840152600160d81b909104811660a0830152600186015480821660c0840152640100000000810490911660e08301526001600160801b03600160401b9091048116928201929092526002850154808316610120830152600160801b90049091166101408201526000906108c6906119a9565b6001600160801b03169050856001600160801b03168110156109505760405162461bcd60e51b815260206004820152603d60248201527f546f6b656e56657374696e673a2063616e6e6f742072656c6561736520746f6b60448201527f656e732c206e6f7420656e6f7567682076657374656420746f6b656e730000006064820152608401610458565b6002840154610970908790600160801b90046001600160801b03166124b5565b6002850180546001600160801b03928316600160801b02908316179055845460ff546001600160a01b03630100000090920491909116916109b491908916906124e0565b60ff5560fc5460fb546109de916001600160a01b039182169116836001600160801b038b16611af9565b6040516001600160801b038816815288906001600160a01b0383169033907f2afa253d0464d87b039f71a6964ed5c028a3a3c68048d909fbee4b1610756e799060200160405180910390a45050600160c955505050505050565b6097546001600160a01b03163314610a625760405162461bcd60e51b8152600401610458906124f7565b610a6c6000611b59565b565b6097546001600160a01b03163314610a985760405162461bcd60e51b8152600401610458906124f7565b60008563ffffffff1611610af95760405162461bcd60e51b815260206004820152602260248201527f546f6b656e56657374696e673a206475726174696f6e206d757374206265203e604482015261020360f41b6064820152608401610458565b6000826001600160801b031611610b525760405162461bcd60e51b815260206004820181905260248201527f546f6b656e56657374696e673a20616d6f756e74206d757374206265203e20306044820152606401610458565b816001600160801b0316816001600160801b03161115610bda5760405162461bcd60e51b815260206004820152603b60248201527f546f6b656e56657374696e673a20696d6d6564696174656c7952656c6561736160448201527f626c65416d6f756e74206d757374206265203c3d20616d6f756e7400000000006064820152608401610458565b60018463ffffffff161015610c475760405162461bcd60e51b815260206004820152602d60248201527f546f6b656e56657374696e673a20736c696365506572696f645365636f6e647360448201526c206d757374206265203e3d203160981b6064820152608401610458565b604051630f7c469f60e41b81526001600160a01b0389166004820152600090309063f7c469f090602401602060405180830381865afa158015610c8e573d6000803e3d6000fd5b505050506040513d601f19601f82011682018060405250810190610cb2919061252c565b90506000610cc0888a612545565b905060405180610160016040528060011515815260200186151581526020016000151581526020018b6001600160a01b031681526020018263ffffffff1681526020018a63ffffffff1681526020018863ffffffff1681526020018763ffffffff168152602001856001600160801b03168152602001846001600160801b0316815260200160006001600160801b031681525060fe600084815260200190815260200160002060008201518160000160006101000a81548160ff02191690831515021790555060208201518160000160016101000a81548160ff02191690831515021790555060408201518160000160026101000a81548160ff02191690831515021790555060608201518160000160036101000a8154816001600160a01b0302191690836001600160a01b0316021790555060808201518160000160176101000a81548163ffffffff021916908363ffffffff16021790555060a082015181600001601b6101000a81548163ffffffff021916908363ffffffff16021790555060c08201518160010160006101000a81548163ffffffff021916908363ffffffff16021790555060e08201518160010160046101000a81548163ffffffff021916908363ffffffff1602179055506101008201518160010160086101000a8154816001600160801b0302191690836001600160801b031602179055506101208201518160020160006101000a8154816001600160801b0302191690836001600160801b031602179055506101408201518160020160106101000a8154816001600160801b0302191690836001600160801b03160217905550905050836001600160801b031660ff54610f339190612564565b60ff5560fd805460018181019092557f9346ac6dd7de6b96975fec380d4d994c4c12e6a8897544f22915316cc6cca280018390556001600160a01b038b166000908152610100602052604090205490610f8d908290612564565b6001600160a01b038c166000818152610100602090815260408083209490945586825260fe90528290209151859233917f1a9bf504c47e19332c23d4d6cb642dfdc487ab0db791404c129a1f6ec87afc7b91610fe89161257c565b60405180910390a45050505050505050505050565b61100561204a565b6001600160a01b0382166000908152610100602052604081205460fe91906110359085906102ec906001906124e0565b81526020808201929092526040908101600020815161016081018352815460ff808216151583526101008083048216151596840196909652620100008204161515938201939093526001600160a01b036301000000840416606082015263ffffffff600160b81b840481166080830152600160d81b909304831660a0820152600182015480841660c0830152640100000000810490931660e08201526001600160801b03600160401b90930483169381019390935260020154808216610120840152600160801b90041661014082015292915050565b6040516bffffffffffffffffffffffff19606084901b1660208201526034810182905260009060540160405160208183030381529060405280519060200120905092915050565b61115a61204a565b50600090815260fe6020908152604091829020825161016081018452815460ff808216151583526101008083048216151595840195909552620100008204161515948201949094526001600160a01b036301000000850416606082015263ffffffff600160b81b850481166080830152600160d81b909404841660a0820152600182015480851660c0830152640100000000810490941660e08201526001600160801b03600160401b90940484169281019290925260020154808316610120830152600160801b900490911661014082015290565b6097546001600160a01b031633146112595760405162461bcd60e51b8152600401610458906124f7565b600081815260fe6020526040902054819060ff16151560011461127b57600080fd5b600081815260fe602052604090205462010000900460ff161561129d57600080fd5b600082815260fe60205260409020805460ff6101009091041615156001146113165760405162461bcd60e51b815260206004820152602660248201527f546f6b656e56657374696e673a2076657374696e67206973206e6f74207265766044820152656f6361626c6560d01b6064820152608401610458565b6040805161016081018252825460ff808216151583526101008083048216151560208501526201000083049091161515938301939093526001600160a01b036301000000820416606083015263ffffffff600160b81b820481166080840152600160d81b909104811660a0830152600184015480821660c0840152640100000000810490911660e08301526001600160801b03600160401b9091048116928201929092526002830154808316610120830152600160801b90049091166101408201526000906113e4906119a9565b90506001600160801b038116156113ff576113ff84826106a9565b60028201546001830154600091611431916001600160801b03600160801b909204821691600160401b90910416612634565b6001600160801b031690508060ff5461144a91906124e0565b60ff55825462ff00001916620100001780845560405186916001600160a01b036301000000909104169033907feee7de70b290c411a060d8bb9b1cba152a40d74147fef0974d7c2b25ac9b718a90600090a45050505050565b600081815260fe6020526040812054829060ff1615156001146114c557600080fd5b600083815260fe6020908152604091829020825161016081018452815460ff808216151583526101008083048216151595840195909552620100008204161515948201949094526001600160a01b036301000000850416606082015263ffffffff600160b81b850481166080830152600160d81b909404841660a0820152600182015480851660c0830152640100000000810490941660e08201526001600160801b03600160401b9094048416928101929092526002810154808416610120840152600160801b90049092166101408201526115a0906119a9565b6001600160801b0316949350505050565b6097546001600160a01b031633146115db5760405162461bcd60e51b8152600401610458906124f7565b60fc546040516001600160a01b0380841692169033907f23c12d5579081c5f1077c04a6b1c114d0f3de239e81a436836d30ecb099ffa1390600090a460fc80546001600160a01b0319166001600160a01b0392909216919091179055565b6097546001600160a01b031633146116635760405162461bcd60e51b8152600401610458906124f7565b6001600160a01b0381166116c85760405162461bcd60e51b815260206004820152602660248201527f4f776e61626c653a206e6577206f776e657220697320746865207a65726f206160448201526564647265737360d01b6064820152608401610458565b6104de81611b59565b6116d961204a565b6116e661032a848461110b565b9392505050565b6001600160a01b0381166000908152610100602052604081205461171290839061110b565b92915050565b600061172360fd5490565b821061177b5760405162461bcd60e51b815260206004820152602160248201527f546f6b656e56657374696e673a20696e646578206f7574206f6620626f756e646044820152607360f81b6064820152608401610458565b60fd828154811061178e5761178e61265c565b90600052602060002001549050919050565b7f360894a13ba1a3210667c828492db98dca3e2076cc3735a920a3ca505d382bbc546001600160a01b031690565b6097546001600160a01b031633146104de5760405162461bcd60e51b8152600401610458906124f7565b60006118026117a0565b905061180d84611bab565b60008351118061181a5750815b1561182b576118298484611c50565b505b7f4910fdfa16fed3260ed0e7147f7cc6da11a60208b5b9406d12a635614ffd9143805460ff1661193c57805460ff191660011781556040516001600160a01b03831660248201526118aa90869060440160408051601f198184030181529190526020810180516001600160e01b0316631b2ce7f360e11b179052611c50565b50805460ff191681556118bb6117a0565b6001600160a01b0316826001600160a01b0316146119335760405162461bcd60e51b815260206004820152602f60248201527f45524331393637557067726164653a207570677261646520627265616b73206660448201526e75727468657220757067726164657360881b6064820152608401610458565b61193c85611d3b565b5050505050565b600054610100900460ff1661196a5760405162461bcd60e51b815260040161045890612672565b611972611d7b565b610a6c611da2565b600054610100900460ff166119a15760405162461bcd60e51b815260040161045890612672565b610a6c611dd2565b60a0810151600090429063ffffffff168110806119cc5750604083015115156001145b156119da5750600092915050565b826080015163ffffffff16811015611a02578261014001518361012001516116e69190612634565b8260c001518360a00151611a169190612545565b63ffffffff168110611a38578261014001518361010001516116e69190612634565b60008360a0015163ffffffff1682611a5091906124e0565b60e085015190915063ffffffff166000611a6a82846126bd565b90506000611a7883836126df565b905060008761014001516001600160801b03168861012001516001600160801b03168960c0015163ffffffff16848b61012001518c6101000151611abc9190612634565b6001600160801b0316611acf91906126df565b611ad991906126bd565b611ae39190612564565b611aed91906124e0565b98975050505050505050565b604080516001600160a01b0385811660248301528416604482015260648082018490528251808303909101815260849091019091526020810180516001600160e01b03166323b872dd60e01b179052611b53908590611e00565b50505050565b609780546001600160a01b038381166001600160a01b0319831681179093556040519116919082907f8be0079c531659141344cd1fd0a4f28419497f9722a3daafe3b4186f6b6457e090600090a35050565b803b611c0f5760405162461bcd60e51b815260206004820152602d60248201527f455243313936373a206e657720696d706c656d656e746174696f6e206973206e60448201526c1bdd08184818dbdb9d1c9858dd609a1b6064820152608401610458565b7f360894a13ba1a3210667c828492db98dca3e2076cc3735a920a3ca505d382bbc80546001600160a01b0319166001600160a01b0392909216919091179055565b6060823b611caf5760405162461bcd60e51b815260206004820152602660248201527f416464726573733a2064656c65676174652063616c6c20746f206e6f6e2d636f6044820152651b9d1c9858dd60d21b6064820152608401610458565b600080846001600160a01b031684604051611cca919061272a565b600060405180830381855af49150503d8060008114611d05576040519150601f19603f3d011682016040523d82523d6000602084013e611d0a565b606091505b5091509150611d32828260405180606001604052806027815260200161279760279139611ed2565b95945050505050565b611d4481611bab565b6040516001600160a01b038216907fbc7cd75a20ee27fd9adebab32041f755214dbc6bffa90cc0225b39da2e5c2d3b90600090a250565b600054610100900460ff16610a6c5760405162461bcd60e51b815260040161045890612672565b600054610100900460ff16611dc95760405162461bcd60e51b815260040161045890612672565b610a6c33611b59565b600054610100900460ff16611df95760405162461bcd60e51b815260040161045890612672565b600160c955565b6000611e55826040518060400160405280602081526020017f5361666545524332303a206c6f772d6c6576656c2063616c6c206661696c6564815250856001600160a01b0316611f0b9092919063ffffffff16565b8051909150156106a45780806020019051810190611e739190612746565b6106a45760405162461bcd60e51b815260206004820152602a60248201527f5361666545524332303a204552433230206f7065726174696f6e20646964206e6044820152691bdd081cdd58d8d9595960b21b6064820152608401610458565b60608315611ee15750816116e6565b825115611ef15782518084602001fd5b8160405162461bcd60e51b81526004016104589190612763565b6060611f1a8484600085611f22565b949350505050565b606082471015611f835760405162461bcd60e51b815260206004820152602660248201527f416464726573733a20696e73756666696369656e742062616c616e636520666f6044820152651c8818d85b1b60d21b6064820152608401610458565b843b611fd15760405162461bcd60e51b815260206004820152601d60248201527f416464726573733a2063616c6c20746f206e6f6e2d636f6e74726163740000006044820152606401610458565b600080866001600160a01b03168587604051611fed919061272a565b60006040518083038185875af1925050503d806000811461202a576040519150601f19603f3d011682016040523d82523d6000602084013e61202f565b606091505b509150915061203f828286611ed2565b979650505050505050565b6040805161016081018252600080825260208201819052918101829052606081018290526080810182905260a0810182905260c0810182905260e081018290526101008101829052610120810182905261014081019190915290565b80356001600160a01b03811681146120bd57600080fd5b919050565b6000602082840312156120d457600080fd5b6116e6826120a6565b634e487b7160e01b600052604160045260246000fd5b6000806040838503121561210657600080fd5b61210f836120a6565b9150602083013567ffffffffffffffff8082111561212c57600080fd5b818501915085601f83011261214057600080fd5b813581811115612152576121526120dd565b604051601f8201601f19908116603f0116810190838211818310171561217a5761217a6120dd565b8160405282815288602084870101111561219357600080fd5b8260208601602083013760006020848301015280955050505050509250929050565b600080604083850312156121c857600080fd5b6121d1836120a6565b91506121df602084016120a6565b90509250929050565b80356001600160801b03811681146120bd57600080fd5b6000806040838503121561221257600080fd5b823591506121df602084016121e8565b803563ffffffff811681146120bd57600080fd5b80151581146104de57600080fd5b600080600080600080600080610100898b03121561226157600080fd5b61226a896120a6565b975061227860208a01612222565b965061228660408a01612222565b955061229460608a01612222565b94506122a260808a01612222565b935060a08901356122b281612236565b92506122c060c08a016121e8565b91506122ce60e08a016121e8565b90509295985092959890939650565b815115158152610160810160208301516122fb602084018215159052565b50604083015161230f604084018215159052565b50606083015161232a60608401826001600160a01b03169052565b506080830151612342608084018263ffffffff169052565b5060a083015161235a60a084018263ffffffff169052565b5060c083015161237260c084018263ffffffff169052565b5060e083015161238a60e084018263ffffffff169052565b50610100838101516001600160801b0390811691840191909152610120808501518216908401526101409384015116929091019190915290565b600080604083850312156123d757600080fd5b6123e0836120a6565b946020939093013593505050565b60006020828403121561240057600080fd5b5035919050565b6020808252602c908201527f46756e6374696f6e206d7573742062652063616c6c6564207468726f7567682060408201526b19195b1959d85d1958d85b1b60a21b606082015260800190565b6020808252602c908201527f46756e6374696f6e206d7573742062652063616c6c6564207468726f7567682060408201526b6163746976652070726f787960a01b606082015260800190565b634e487b7160e01b600052601160045260246000fd5b60006001600160801b038083168185168083038211156124d7576124d761249f565b01949350505050565b6000828210156124f2576124f261249f565b500390565b6020808252818101527f4f776e61626c653a2063616c6c6572206973206e6f7420746865206f776e6572604082015260600190565b60006020828403121561253e57600080fd5b5051919050565b600063ffffffff8083168185168083038211156124d7576124d761249f565b600082198211156125775761257761249f565b500190565b815460ff8116151582526101608201906125a06020840160ff8360081c1615159052565b6125b46040840160ff8360101c1615159052565b6001600160a01b03601882901c16606084015263ffffffff60b882901c8116608085015260d89190911c811660a0840152600184015480821660c0850152602081901c821660e0850152905060401c6001600160801b039081166101008401526002939093015492831661012083015260809290921c6101409091015290565b60006001600160801b03838116908316818110156126545761265461249f565b039392505050565b634e487b7160e01b600052603260045260246000fd5b6020808252602b908201527f496e697469616c697a61626c653a20636f6e7472616374206973206e6f74206960408201526a6e697469616c697a696e6760a81b606082015260800190565b6000826126da57634e487b7160e01b600052601260045260246000fd5b500490565b60008160001904831182151516156126f9576126f961249f565b500290565b60005b83811015612719578181015183820152602001612701565b83811115611b535750506000910152565b6000825161273c8184602087016126fe565b9190910192915050565b60006020828403121561275857600080fd5b81516116e681612236565b60208152600082518060208401526127828160408501602087016126fe565b601f01601f1916919091016040019291505056fe416464726573733a206c6f772d6c6576656c2064656c65676174652063616c6c206661696c6564a26469706673582212200555613e3413a4905c2660e4cdf8c5377cee86645c60c2c0ee6cdedc770a632964736f6c634300080b0033",
  "devdoc": {
    "kind": "dev",
    "methods": {
      "computeNextVestingScheduleIdForHolder(address)": {
        "details": "Computes the next vesting schedule identifier for a given holder address."
      },
      "computeReleasableAmount(bytes32)": {
        "returns": {
          "_0": "the vested amount"
        }
      },
      "computeVestingScheduleIdForAddressAndIndex(address,uint256)": {
        "details": "Computes the vesting schedule identifier for an address and an index."
      },
      "createVestingSchedule(address,uint32,uint32,uint32,uint32,bool,uint128,uint128)": {
        "params": {
          "_amount": "total amount of tokens to be released at the end of the vesting",
          "_beneficiary": "address of the beneficiary to whom vested tokens are transferred",
          "_cliff": "duration in seconds of the cliff in which tokens will begin to vest",
          "_duration": "duration in seconds of the period in which the tokens will vest",
          "_immediatelyReleasableAmount": "total amount of tokens to be released at the beginning of the vesting",
          "_revocable": "whether the vesting is revocable or not",
          "_slicePeriodSeconds": "duration of a slice period for the vesting in seconds",
          "_start": "start time of the vesting period"
        }
      },
      "getLastVestingScheduleForHolder(address)": {
        "details": "Returns the last vesting schedule for a given holder address."
      },
      "getToken()": {
        "details": "Returns the address of the ERC20 token managed by the vesting contract."
      },
      "getTreasury()": {
        "details": "Returns the address of the wallet smart contract uses to fund vesting."
      },
      "getVestingIdAtIndex(uint256)": {
        "details": "Returns the vesting schedule id at the given index.",
        "returns": {
          "_0": "the vesting id"
        }
      },
      "getVestingSchedule(bytes32)": {
        "returns": {
          "_0": "the vesting schedule structure information"
        }
      },
      "getVestingScheduleByAddressAndIndex(address,uint256)": {
        "returns": {
          "_0": "the vesting schedule structure information"
        }
      },
      "getVestingSchedulesCount()": {
        "details": "Returns the number of vesting schedules managed by this contract.",
        "returns": {
          "_0": "the number of vesting schedules"
        }
      },
      "getVestingSchedulesCountByBeneficiary(address)": {
        "details": "Returns the number of vesting schedules associated to a beneficiary.",
        "returns": {
          "_0": "the number of vesting schedules"
        }
      },
      "getVestingSchedulesTotalAmount()": {
        "returns": {
          "_0": "the total amount of vesting schedules"
        }
      },
      "owner()": {
        "details": "Returns the address of the current owner."
      },
      "postConstruct(address,address)": {
        "details": "UUPS initializer, initializes a vesting contract",
        "params": {
          "token_": "address of the ERC20 token contract, non-zero, immutable",
          "treasury_": "address of the wallet funding vesting contract, mutable"
        }
      },
      "release(bytes32,uint128)": {
        "params": {
          "amount": "the amount to release",
          "vestingScheduleId": "the vesting schedule identifier"
        }
      },
      "renounceOwnership()": {
        "details": "Leaves the contract without owner. It will not be possible to call `onlyOwner` functions anymore. Can only be called by the current owner. NOTE: Renouncing ownership will leave the contract without an owner, thereby removing any functionality that is only available to the owner."
      },
      "revoke(bytes32)": {
        "params": {
          "vestingScheduleId": "the vesting schedule identifier"
        }
      },
      "setTreasury(address)": {
        "details": "Updates the wallet address used by the smart contract to fund vesting.",
        "params": {
          "treasury_": "wallet address to set to fund vesting"
        }
      },
      "transferOwnership(address)": {
        "details": "Transfers ownership of the contract to a new account (`newOwner`). Can only be called by the current owner."
      },
      "upgradeTo(address)": {
        "details": "Upgrade the implementation of the proxy to `newImplementation`. Calls {_authorizeUpgrade}. Emits an {Upgraded} event."
      },
      "upgradeToAndCall(address,bytes)": {
        "details": "Upgrade the implementation of the proxy to `newImplementation`, and subsequently execute the function call encoded in `data`. Calls {_authorizeUpgrade}. Emits an {Upgraded} event."
      }
    },
    "title": "TokenVesting",
    "version": 1
  },
  "userdoc": {
    "kind": "user",
    "methods": {
      "computeReleasableAmount(bytes32)": {
        "notice": "Computes the vested amount of tokens for the given vesting schedule identifier."
      },
      "createVestingSchedule(address,uint32,uint32,uint32,uint32,bool,uint128,uint128)": {
        "notice": "Creates a new vesting schedule for a beneficiary."
      },
      "getVestingSchedule(bytes32)": {
        "notice": "Returns the vesting schedule information for a given identifier."
      },
      "getVestingScheduleByAddressAndIndex(address,uint256)": {
        "notice": "Returns the vesting schedule information for a given holder and index."
      },
      "getVestingSchedulesTotalAmount()": {
        "notice": "Returns the total amount of vesting schedules."
      },
      "release(bytes32,uint128)": {
        "notice": "Release vested amount of tokens."
      },
      "revoke(bytes32)": {
        "notice": "Revokes the vesting schedule for given identifier."
      }
    },
    "version": 1
  },
  "storageLayout": {
    "storage": [
      {
        "astId": 540,
        "contract": "contracts/TokenVesting.sol:TokenVesting",
        "label": "_initialized",
        "offset": 0,
        "slot": "0",
        "type": "t_bool"
      },
      {
        "astId": 543,
        "contract": "contracts/TokenVesting.sol:TokenVesting",
        "label": "_initializing",
        "offset": 1,
        "slot": "0",
        "type": "t_bool"
      },
      {
        "astId": 522,
        "contract": "contracts/TokenVesting.sol:TokenVesting",
        "label": "__gap",
        "offset": 0,
        "slot": "1",
        "type": "t_array(t_uint256)50_storage"
      },
      {
        "astId": 717,
        "contract": "contracts/TokenVesting.sol:TokenVesting",
        "label": "__gap",
        "offset": 0,
        "slot": "51",
        "type": "t_array(t_uint256)50_storage"
      },
      {
        "astId": 1064,
        "contract": "contracts/TokenVesting.sol:TokenVesting",
        "label": "__gap",
        "offset": 0,
        "slot": "101",
        "type": "t_array(t_uint256)50_storage"
      },
      {
        "astId": 10,
        "contract": "contracts/TokenVesting.sol:TokenVesting",
        "label": "_owner",
        "offset": 0,
        "slot": "151",
        "type": "t_address"
      },
      {
        "astId": 124,
        "contract": "contracts/TokenVesting.sol:TokenVesting",
        "label": "__gap",
        "offset": 0,
        "slot": "152",
        "type": "t_array(t_uint256)49_storage"
      },
      {
        "astId": 732,
        "contract": "contracts/TokenVesting.sol:TokenVesting",
        "label": "_status",
        "offset": 0,
        "slot": "201",
        "type": "t_uint256"
      },
      {
        "astId": 775,
        "contract": "contracts/TokenVesting.sol:TokenVesting",
        "label": "__gap",
        "offset": 0,
        "slot": "202",
        "type": "t_array(t_uint256)49_storage"
      },
      {
        "astId": 3028,
        "contract": "contracts/TokenVesting.sol:TokenVesting",
        "label": "_token",
        "offset": 0,
        "slot": "251",
        "type": "t_address"
      },
      {
        "astId": 3030,
        "contract": "contracts/TokenVesting.sol:TokenVesting",
        "label": "_treasury",
        "offset": 0,
        "slot": "252",
        "type": "t_address"
      },
      {
        "astId": 3033,
        "contract": "contracts/TokenVesting.sol:TokenVesting",
        "label": "vestingSchedulesIds",
        "offset": 0,
        "slot": "253",
        "type": "t_array(t_bytes32)dyn_storage"
      },
      {
        "astId": 3038,
        "contract": "contracts/TokenVesting.sol:TokenVesting",
        "label": "vestingSchedules",
        "offset": 0,
        "slot": "254",
        "type": "t_mapping(t_bytes32,t_struct(VestingSchedule)3026_storage)"
      },
      {
        "astId": 3040,
        "contract": "contracts/TokenVesting.sol:TokenVesting",
        "label": "vestingSchedulesTotalAmount",
        "offset": 0,
        "slot": "255",
        "type": "t_uint256"
      },
      {
        "astId": 3044,
        "contract": "contracts/TokenVesting.sol:TokenVesting",
        "label": "holdersVestingCount",
        "offset": 0,
        "slot": "256",
        "type": "t_mapping(t_address,t_uint256)"
      }
    ],
    "types": {
      "t_address": {
        "encoding": "inplace",
        "label": "address",
        "numberOfBytes": "20"
      },
      "t_array(t_bytes32)dyn_storage": {
        "base": "t_bytes32",
        "encoding": "dynamic_array",
        "label": "bytes32[]",
        "numberOfBytes": "32"
      },
      "t_array(t_uint256)49_storage": {
        "base": "t_uint256",
        "encoding": "inplace",
        "label": "uint256[49]",
        "numberOfBytes": "1568"
      },
      "t_array(t_uint256)50_storage": {
        "base": "t_uint256",
        "encoding": "inplace",
        "label": "uint256[50]",
        "numberOfBytes": "1600"
      },
      "t_bool": {
        "encoding": "inplace",
        "label": "bool",
        "numberOfBytes": "1"
      },
      "t_bytes32": {
        "encoding": "inplace",
        "label": "bytes32",
        "numberOfBytes": "32"
      },
      "t_mapping(t_address,t_uint256)": {
        "encoding": "mapping",
        "key": "t_address",
        "label": "mapping(address => uint256)",
        "numberOfBytes": "32",
        "value": "t_uint256"
      },
      "t_mapping(t_bytes32,t_struct(VestingSchedule)3026_storage)": {
        "encoding": "mapping",
        "key": "t_bytes32",
        "label": "mapping(bytes32 => struct TokenVesting.VestingSchedule)",
        "numberOfBytes": "32",
        "value": "t_struct(VestingSchedule)3026_storage"
      },
      "t_struct(VestingSchedule)3026_storage": {
        "encoding": "inplace",
        "label": "struct TokenVesting.VestingSchedule",
        "members": [
          {
            "astId": 3005,
            "contract": "contracts/TokenVesting.sol:TokenVesting",
            "label": "initialized",
            "offset": 0,
            "slot": "0",
            "type": "t_bool"
          },
          {
            "astId": 3007,
            "contract": "contracts/TokenVesting.sol:TokenVesting",
            "label": "revocable",
            "offset": 1,
            "slot": "0",
            "type": "t_bool"
          },
          {
            "astId": 3009,
            "contract": "contracts/TokenVesting.sol:TokenVesting",
            "label": "revoked",
            "offset": 2,
            "slot": "0",
            "type": "t_bool"
          },
          {
            "astId": 3011,
            "contract": "contracts/TokenVesting.sol:TokenVesting",
            "label": "beneficiary",
            "offset": 3,
            "slot": "0",
            "type": "t_address"
          },
          {
            "astId": 3013,
            "contract": "contracts/TokenVesting.sol:TokenVesting",
            "label": "cliff",
            "offset": 23,
            "slot": "0",
            "type": "t_uint32"
          },
          {
            "astId": 3015,
            "contract": "contracts/TokenVesting.sol:TokenVesting",
            "label": "start",
            "offset": 27,
            "slot": "0",
            "type": "t_uint32"
          },
          {
            "astId": 3017,
            "contract": "contracts/TokenVesting.sol:TokenVesting",
            "label": "duration",
            "offset": 0,
            "slot": "1",
            "type": "t_uint32"
          },
          {
            "astId": 3019,
            "contract": "contracts/TokenVesting.sol:TokenVesting",
            "label": "slicePeriodSeconds",
            "offset": 4,
            "slot": "1",
            "type": "t_uint32"
          },
          {
            "astId": 3021,
            "contract": "contracts/TokenVesting.sol:TokenVesting",
            "label": "amountTotal",
            "offset": 8,
            "slot": "1",
            "type": "t_uint128"
          },
          {
            "astId": 3023,
            "contract": "contracts/TokenVesting.sol:TokenVesting",
            "label": "immediatelyReleasableAmount",
            "offset": 0,
            "slot": "2",
            "type": "t_uint128"
          },
          {
            "astId": 3025,
            "contract": "contracts/TokenVesting.sol:TokenVesting",
            "label": "released",
            "offset": 16,
            "slot": "2",
            "type": "t_uint128"
          }
        ],
        "numberOfBytes": "96"
      },
      "t_uint128": {
        "encoding": "inplace",
        "label": "uint128",
        "numberOfBytes": "16"
      },
      "t_uint256": {
        "encoding": "inplace",
        "label": "uint256",
        "numberOfBytes": "32"
      },
      "t_uint32": {
        "encoding": "inplace",
        "label": "uint32",
        "numberOfBytes": "4"
      }
    }
  }
}